{
  "_format": "hh-sol-artifact-1",
  "contractName": "MockProfileCreationProxy",
  "sourceName": "contracts/mocks/MockProfileCreationProxy.sol",
  "abi": [
    {
      "inputs": [
        {
          "internalType": "address",
          "name": "hub",
          "type": "address"
        }
      ],
      "stateMutability": "nonpayable",
      "type": "constructor"
    },
    {
      "inputs": [
        {
          "components": [
            {
              "internalType": "address",
              "name": "to",
              "type": "address"
            },
            {
              "internalType": "string",
              "name": "handle",
              "type": "string"
            },
            {
              "internalType": "string",
              "name": "imageURI",
              "type": "string"
            },
            {
              "internalType": "address",
              "name": "followModule",
              "type": "address"
            },
            {
              "internalType": "bytes",
              "name": "followModuleInitData",
              "type": "bytes"
            },
            {
              "internalType": "string",
              "name": "followNFTURI",
              "type": "string"
            }
          ],
          "internalType": "struct DataTypes.CreateProfileData",
          "name": "vars",
          "type": "tuple"
        }
      ],
      "name": "proxyCreateProfile",
      "outputs": [],
      "stateMutability": "nonpayable",
      "type": "function"
    }
  ],
  "bytecode": "0x60a060405234801561001057600080fd5b5060405161035f38038061035f83398101604081905261002f91610040565b6001600160a01b0316608052610070565b60006020828403121561005257600080fd5b81516001600160a01b038116811461006957600080fd5b9392505050565b6080516102d561008a6000396000605f01526102d56000f3fe608060405234801561001057600080fd5b506004361061002b5760003560e01c806307e5f94814610030575b600080fd5b61004361003e3660046100db565b610045565b005b6040516001620af63960e11b031981526001600160a01b037f0000000000000000000000000000000000000000000000000000000000000000169063ffea138e906100949084906004016101af565b6020604051808303816000875af11580156100b3573d6000803e3d6000fd5b505050506040513d601f19601f820116820180604052508101906100d79190610286565b5050565b6000602082840312156100ed57600080fd5b813567ffffffffffffffff81111561010457600080fd5b820160c0818503121561011657600080fd5b9392505050565b80356001600160a01b038116811461013457600080fd5b919050565b6000808335601e1984360301811261015057600080fd5b830160208101925035905067ffffffffffffffff81111561017057600080fd5b80360383131561017f57600080fd5b9250929050565b81835281816020850137506000828201602090810191909152601f909101601f19169091010190565b6020815260006001600160a01b03806101c78561011d565b1660208401526101da6020850185610139565b60c060408601526101ef60e086018284610186565b9150506101ff6040860186610139565b601f1980878503016060880152610217848385610186565b93508461022660608a0161011d565b1660808801526102396080890189610139565b95509250808785030160a0880152610252848685610186565b945061026160a0890189610139565b94509250808786030160c0880152505061027c838383610186565b9695505050505050565b60006020828403121561029857600080fd5b505191905056fea26469706673582212204dd2e8f19e2404cfc249a9f0722635d5beeac613d9df1bb3e2abbd8a18797b8564736f6c634300080a0033",
  "linkReferences": {},
  "deployedLinkReferences": {}
}